:100000000C942A000C942E010C9447000C94470089
:100010000C9447000C9447000C9447000C94470044
:100020000C9447000C9447000C9447000C94470034
:100030000C9447000C9447000C9447000C94470024
:100040000C9447000C9447000C9447000C94470014
:100050000C94470011241FBECFE5D8E0DEBFCDBF12
:1000600010E0A0E6B0E0E8EAF2E002C005900D92F0
:10007000A236B107D9F720E0A2E6B0E001C01D9298
:10008000A536B207E1F70E9412010C9452010C94BC
:10009000000011BA8FEF87BB8ABB84BB86E088BBA8
:1000A0008BBB15BA80E48BBF83E085BF789408953D
:1000B000209160009091610081E0291708F080E0B4
:1000C0000895209160009091610081E0921708F0FE
:1000D00080E00895833069F028F4813041F0823067
:1000E00081F00DC0843039F0853039F008C086E0E9
:1000F00008958FE4089586E608958DE6089589E7CA
:1001000008958BE508950F931F93CF93DF93082FE6
:10011000162FC82FD0E0C05ADF4F26C098819730E5
:1001200031F19881191778F49881915098830111D1
:1001300005C088810E946A0088BB16C088810E9421
:100140006A008BBB11C09881911770F488818F5F12
:100150008883011105C088810E946A0088BB04C0A1
:1001600088810E946A008BBB98819113D7CFDF9161
:10017000CF911F910F91089580B383708093630096
:1001800080916300813019F0823059F014C00E94D0
:1001900061008093620061E00E94830081E090E052
:1001A00008950E9458008093620065E00E948300D9
:1001B00081E090E0089580E090E0089580B3887F2A
:1001C000E9F370B320B350B340B360B373FB772748
:1001D00070F9207130E0C9019595879595958795BF
:1001E00095958795870F262F221F2227221F922F52
:1001F000990F990F290F820F56FB332730F9330FD0
:10020000330F830F45FB992790F9292F220F920F67
:10021000980F9093640060916400809162000E9446
:10022000830008950E9449000E94BC00892BE1F3DD
:100230000E94DE00F9CF80916200882321F085B30F
:10024000806F85BB03C085B38F6085BBE091620082
:10025000F0E0E05AFF4F87E0808308951F920F92ED
:100260000FB60F9211242F933F934F935F936F9389
:100270007F938F939F93AF93BF93EF93FF930E94CE
:100280001B01FF91EF91BF91AF919F918F917F9152
:100290006F915F914F913F912F910F900FBE0F90F3
:0802A0001F901895F894FFCFA0
:0202A800010152
:00000001FF
